:20000000004B002051470100FDC90110FDC90110FDC90110FDC90110FDC90110FDC90110D2
:1C002000FDC90110FDC90110FDC90110FDC90110FDC90110FDC901103BCA0110A4
:20003C0038C40D00C80000008100000032000F0100C50D00900100004000000096000501D1
:20005C00952B0D00C80000002200000032000F02000000000000000000000000000000008A
:20007C0000000000000000000000000000000000000002000000020002000200000032002A
:20009C00040001000000020000000000000000000500010000000700060001000000030026
:2000BC0007000800000000000F0001000100FF0010000800000000001800080000000000CD
:2000DC002200020000000000360001000600000000000000000F0000000000000000000094
:2000FC000000000000000300FFFF00000403FFFF0000FFFF0F00E8030005401F031000016E
:20011C0001000000FF3F0F0008000E0000000000000000000300010F000009010000000042
:20013C000000000000000000000000000000000000000000000000000000000000000000A3
:20015C000000000000000000AD00000100000000FFFFFFFFFFFFFFFF9A1000000000000033
:20017C00000000000000000000000000000000000000000000000000000000000000FAFA6F
:20019C0014000000000000000000000100000101000000000000000000000000000000002C
:2001BC00000000000000000000000000000000000000000000000000000000000000000023
:2001DC0000000000000000000000000000000000000000780008020030000A0000013636DA
:2001FC0001010001020100010301000104010606080400000C0100340D01000F1004010146
:20021C00140100FF1608000020020000220100FF23010001240100FE2501000826020000AE
:20023C0028010001290100012A0200002C01000F2E0200003001000131010008320200FF16
:20025C0034010007350102FF360100003701000138010001390100FF3A01000F3C0200FFA5
:20027C003E01010F3F0100014001041F41010001420100FF43010080440800004E01000882
:20029C004F01000F50010001510100FF5201000A5301008954010001580400005C040000F4
:2002BC006004000064040000680400006C0400007004000074040000780400007C04000092
:2002DC00800100FF810100018201000183010102840100010008000000000000000008045A
:2002FC00FA000000FFFFFF000C1100000000000000001D1100000000000000002E010F0062
:20031C000000FA0000002F0100000000FA000000300100000000FF0000003101000000003B
:20033C00FF00000032010000000003000000330100000000030000003401000000000100FF
:20035C000000350200000000FFFF0000370200000000FF000000390200000000FF000000DA
:20037C003B0200000000FFFF00003D0100000000FF0000003E0100000000010000003F0169
:20039C00000000000100000040010000000007000000412000000000000000006102000034
:2003BC000000FFFF0000630800000000000000006B080000000000000000730800000000CA
:2003DC00000000007B08000000000000000083020500000058020000850100000000100004
:2003FC00000086020000000032000000880200000000320000008A02000000000A000000D5
:20041C00000105090004081000040810020402010101010902000120181A18182C34041E5D
:20043C00000C0E020B040B0A070800110F00A6AAACA4A9A9A399B19ABCB6A8313117191AF2
:20045C0021241B1D1F31313331313118191A22311C1E20313134310000000500BD00B70084
:20047C00B100BC001C00300038000800380102000000000002000000020000000A0000001E
:20049C0002000000020001000000000000000000000000000000000000000000000000003B
:2004BC00000000000E000000C003000080070000000F0000001E0000003C000000780000E7
:2004DC0000F0000000E0010000C003000080070000000F0000001E0000003C000000780004
:2004FC000000F0000000F000010171010101010111010101310101010101800100011001AB
:20051C0061013B001400630173017201620143010001130106013D01350004011201000174
:20053C0000010001000104010401330133013C0144013201360000010001650100013500A1
:20055C00810100010501820183010001660100010001080109010302710230016002110254
:20057C00700201020202020280020002100261023A00410063027302720262024302000275
:20059C00130238000002000204021202000200020002000204020402370037003C024402CE
:2005BC0000023900000200026502000235028102000205028202830200026602000200023D
:2005DC000802090203047104020460041104700402040204010402040004100461040004E3
:2005FC0014046304730472046204430400041304060400040004040412040004000400046F
:20061C0000045104640000040004000444040004000400040004650400043504810464000E
:20063C00050400048304000466040004000408040904000000BD30010000650401000223FE
:20065C00A80000006F7A01000123A80000006F7A01000325DA0000006F7A010004CD7901FF
:20067C0000006F7A010001DF79010001D9790100016F7A0100016F7A0100016F7A01000005
:20069C00614C0100016F7A0100016F7A0100016F7A0100016F7A010002DF79010002D97935
:2006BC000100026F7A010000614C0100026F7A0100026F7A010002C93E0100026F7A0100B5
:2006DC000405140000006F7A010003DF79010003D97901000323A800000323A80000036F37
:2006FC007A01000325DA0000036F7A010000614C0100036F7A0100036F7A010004DF79018F
:20071C000004D97901000423A800000423A800000423A800000405140000046F7A010004EA
:20073C006F7A010004C779010000614C01000104000104000033333333333333330000001E
:20075C000000000000000000000000000100000000000000020000000000000003333333DE
:20077C00333333333303010000000000000000000000000000000800000000000000000052
:20079C0000000000000000FFFFFFFFFFFFFFFFFFFFFFFFFFFFFFFFFF464854657374000020
:2007BC0000000000000000000000000000000000000000000000000079070000010000009C
:2007DC00DC0A0000080000004A07000001123456789ABCDEF0000000000000000000000085
:2007FC000000000003007100300160001100700031022003500480000700100061000000B5
:20081C0014006300730072006200430000001300060000000000040012000000000000008C
:20083C00000004000400370037003C02440000000000000000006500000035008100000089
:20085C000500000083000000660000000000080009000103710301030103010301030103F1
:20087C0022030203010300031003000300030003000300030003000342030003240306038B
:20089C0000030003040312032503230325032303040304030003000300034403000300031A
:2008BC00230300036503210035038103000305030003000300030003250323030803090332
:2008DC008F0000008F0001008F0002008F000300900000018F000101900000029000000373
:2008FC008F0001048F0000058F0008048F0000048A000006510000007F0001003F000400E2
:20091C003F0002003F0001007F0002007B756E6B6E6F776E2D696E7374616E63652D6E61B0
:20093C006D657D007B656D7074792D696E7374616E63652D6E616D657D00C0467B7374610C
:20095C007469632D696E7374616E63652D6E616D657D00C000000102030410000810182044
:20097C0004040810181C10040810181C00000000080000000000000020000000400000003F
:20099C006000000000000000060000000200000086000000820000000608808007088080AE
:2009BC000D2007C00E2007C01400C0800240008003008080010880801E0880800940008021
:2009DC00084000800A400080FE00000000000000000000000001000000000000000000006A
:2009FC00000000000000000000000000000000000000000000000000000000000D0C0100C1
:200A1C001D2E01006F790100DD950000EDA60000037A0100BF410100B1C80000097A010004
:200A3C00A506010038140000580A0000E9760100F97601001977010009770100DD5C010024
:200A5C0081660100C17101002E000000001000400600000015000000FF00000000000000C7
:200A7C000302FFFF043000202000000001030000000000007BC80110C5BC0110D9B201105D
:200A9C0033C20110BDAD0110C1B101106DBA011065BB01101DC00110A54B010000000000EE
:200ABC00FFFFFFFFFFFFFFFF00000000000000000101010100C20100030000000000000058
:200ADC000000000000000000000000000000000000000000000000000000000000000000FA
:200AFC00400A0000B426002004000000000000000000000014000000380B00001C0000001F
:200B1C00FFFFFFFF0000000000000000000000003A01000000000000000000001C00000066
:200B3C0000000000000000004C0B000000000000080000000000000000000000CDC70000A6
:200B5C00FD2C0100000000000000000101010000C33B3D3A5D3A713AA10A8F3A0F3BB3091B
:200B7C00495E850A2F3B853B010000000000000000000000000001000000010000161016BA
:200B9C000E18151C0212032418580302100258010B010101010101010101010108010201A5
:200BBC000100FF7F0200000000000000FFFFFFFF00000000004002400B00000027000000E8
:200BDC00FF000000FF000100293E010003000000180A0000E82C0020680A000041B50110C0
:200BFC0095A6011015B8011000BE040A00BE0208FFFFFFFFFFFFFFFF354525150203050461
:200C1C00882F0020D00B0000FF00000000000000C1380100B16F01000000000000000000EC
:200C3C0001000000337A0100D77A0100CF1E0100397A01002941010089190100CB7A0100A1
:1A0C5C000A000000D0250020CD5E0100E37A01009DB60000A7790100004021
:200C7800B0B50446BC480768ADF1480D002F00F0AC812078401E122800F2A781DFE810F0EA
:200C98006E0157013D01280120010901F600E800C800B700920067005D004C00A50134000A
:200CB80026001C0013007B6C002B00F08E810020A21C0146984788E1F86B002800F08581C8
:200CD800684621460FF070FDF96B7CE1386C002800F07B8168460021012210F0C1FB60787C
:200CF8008DF80000396C6EE1F86A002800F06D81684600210E2210F0B3FBA11C684616F0DD
:200D18009FF9A57BA1890022ADF80A1005B101228DF80C20F96A57E1B86B002800F05581C2
:200D380068460021022210F09BFBA5788DF8015060788DF80000B96B45E1786B002800F07D
:200D58004481684621460FF02FFD796B3BE1386B08B368460021142210F082FBA5788DF8F4
:200D78000150A3680193A289ADF80820A17B8DF80A1060788DF80000E57B8DF80B50237C7C
:200D98008DF80C3094F911208DF80D2061690491396B684688476068002800F0168116F00D
:200DB800BFFB12E1B86A002800F00F8168460021242210F055FB6078A11C8DF800000DF127
:200DD800020016F03DF904F10C0103A816F038F9257EE08A04F119018DF818500B22ADF8FE
:200DF80016000DF119000EF0C5FCB96AEBE0786A002800F0EA8068460021022210F030FB7F
:200E1800A5788DF8015060788DF80000796ADAE0386A002800F0D98068460021122210F0B7
:200E38001FFB658862796078ADF8025023798DF80520E11D8DF80000A5798DF804300B221C
:200E58000DF107008DF806500EF094FC396ABAE0F869002800F0B98068460021012210F02B
:200E7800FFFA60788DF80000F969ACE0B86910B1204612F06DFDA07820B9A069002800F050
:200E9800A48003E0A069002800F09F8014F06CFB9BE07869002800F09880684600211322F8
:200EB80010F0DEFA6D46A01C0168406829600B22686004F10A0102A80EF05CFC796982E000
:200ED8003869002800F0818020460DF04FFE7CE0F868002879D0684600210E2210F0C0FAAA
:200EF8006078A11C8DF800000DF1020016F0A8F8A089ADF80C00F96865E0B868002864D01E
:200F180068460021142210F0ABFAA01C01686D46296040686860A07A0B2204F10B018DF871
:200F380008000DF109000EF025FCB9684BE0786800284AD068460021102210F091FA607899
:200F58006588211D8DF800000B22ADF8025001A80EF010FC796836E0682400203868A0B35C
:200F780068460021192210F07BFAA01C01686D46296040686860A07A410824BF01218DF81C
:200F98000810810824BF01218DF80910C10824BF01218DF80A10010924BF01218DF80B10D9
:200FB800C10924BF01218DF80C1030F07F001CBF01208DF80D000B220DF10E0004F10B0142
:200FD8000EF0D8FB39686846884712B0B0BD0A7A02720A7A022A04D00A6802604968416039
:080FF800704709880180704771
:201000003C000000000000000000000034100000000000000000000001000000000000004F
:1C10200000000000000000000000000001000000000000000800000000000000AB
:20103C003400000000000000000000006810000000000000000000000100000000000000E7
:14105C00010000000000000000000000080000000000000077
:2010700030000000000000000000000098100000040000000000000001000000FFFFFFFF87
:10109000FF00000001000000080000000000000048
:2010A0002C0000000000000000000000C4100000040000000000000001000000FFFFFFFF2F
:0C10C000FFFFFFFF080000000000000020
:2010CC0038140000E410000095A1011091A70110A1C2011009B2011041B80110A5BC011078
:0810EC0085BC01102D0000007D
:2010F400280000000000000000000000141100000000000000000000FFFFFFFF0000000093
:081114000800000000000000CB
:20111C00341400003011000065C2011069C101101BC2011091BA011005BC0110E5BB0110EA
:04113C00300000007F
:20114000341400005411000071C20110A5B6011099BF011045B60110B5BA011025BC01104B
:04116000310000005A
:201164002400000000000000000000008011000000000000000000000000000008000000AE
:041184000000000067
:20118800240000000000000000000000A41100000000000000000000000000000800000066
:0411A8000000000043
:2011AC00240000000000000000000000C8110000000000000100000000000000080000001D
:0411CC00000000001F
:2011D000000000009426002004000000000000000000000020000000701000003000000051
:2011F0001C1100009C2600200400000000000000000000000C000000301300001800000065
:2012100040110000A4260020040000000000000000000000240000004813000018000000E8
:2012300000000000AC26002004000000000000000000000010000000A01000002C000000BC
:20125000CC100000BC260020040000000000000000000000200000006411000024000000E3
:20127000FFFFFFFFC42600200400000000000000000000002800000088110000240000006F
:20129000FFFFFFFFCC260020040000000000000000000000580000003C1000003400000054
:2012B000FFFFFFFFD426002004000000000000000000000010000000601300001800000069
:2012D000FFFFFFFFDC2600200400000000000000000000001C000000AC11000024000000DF
:2012F000FFFFFFFFE426002004000000000000000000000038000000F41000002800000050
:20131000FFFFFFFFEC26002004000000000000000000000054000000001000003C000000EB
:1813300018000000000000000000000040130000080000000000000032
:1813480018000000000000000000000058130000080000000000000002
:18136000180000000000000000000000701300000800000000000000D2
:08137800020000002C0C000033
:0413800013F0B0BAFC
:041384000100000064
:0413880000000E0053
:04138C0000000F004E
:041390003200000027
:041394000100000054
:041398002C260020DF
:04139C00000200004B
:0413A000E5790100EA
:0413A400FDC901106E
:0413A8000000000041
:0413AC00000000003D
:0413B0000800000031
:0413B4000000220013
:0413B80024240020C9
:0413BC00000000002D
:0413C0000000000029
:0413C400080000001D
:0413C8000000000021
:0413CC00000000001D
:0413D0000000000019
:0413D400080000000D
:0413D8000000000011
:0413DC00000000000D
:0413E0000100000008
:0413E400242500209C
:0413E80006000000FB
:0413EC0001000000FC
:0413F00000230020B6
:0413F40000000000F5
:0413F80000000000F1
:0413FC0000020000EB
:0414000000000000E8
:0214040070472F
:021406002800BC
:021408000100E1
:02140A002400BC
:02140C003000AE
:02140E003100AB
:021410002D00AD
:021412000100D7
:0114140001D6
:0814180003000000F80B0000C6
:081420000000000000000000C4
:0414280000000100BF
:04142C0000000300B9
:0414300083C4011060
:041434003C14000064
:041438003C14000060
:04143C0000000000AC
:041440009000000018
:041444009000000014
:0414480000000000A0
:04144C0070260020E6
:04145000A57501007D
:041454002000000074
:04145800840B000001
:04145C00900A0000F2
:0414600009C30110AB
:041464001B37010031
:04146800073B01003D
:04146C0095C801100E
:0414700097C8011008
:041474000000000074
:04147800BD0B0000A8
:04147C004009000023
:041480005809000007
:041484002809000033
:0214880008005A
:02148A00090057
:02148C0001005D
:02148E0000005C
:01149000015A
:041494000000000054
:041498000000000050
:04149C00000000004C
:0414A0000000000048
:0414A400D37A0100F6
:0414A800D553010017
:0414AC005D66010078
:0414B000F1570100EF
:0414B4007B54010064
:0414B800654B01007F
:0414BC001506010010
:0414C000F7770100B9
:0414C4005934010096
:0414C8000DC801103A
:0414CC001DC8011026
:0414D0000800000010
:0414D40024000000F0
:0414D80018000000F8
:0414DC0028000000E4
:0414E00020000000E8
:0414E4003C000000C8
:0414E8000C000000F4
:0414EC0034000000C8
:2014F0008D05002161040021A1040021A5040021CD040021710600212107002149070021CF
:201510003B050021010500218B070021AD07002179050021F8B51047F8B50E4600210125C0
:20153000AD0430470D480378D80702D046488121416000F00FF89B070BD0134C2078FF288F
:2015500007D0FF2121700F490F24240220436031C882F8BDF8B50248004700006B02002183
:20157000E54C0000094801E00848000C064C05492278FF2A01D1CA7A22706031C882704600
:20159000801C00470062084018080021070F080800F090F805990A0A6C2A09D108207861AC
:2015B0002069401C38600A312061059100207861F8BD0000F0B4084710B501480047000056
:2015D0008909000000F018F8E1B250290BD0042801D0062807D10D490978C90703D121786B
:2015F000090700D402200A490A780C21114202D0084980220A60FEBDFEB5074908470448F8
:20161000017840229143017004480047C80000211701002100E200E0F1CC000003D1000092
:20163000FFB5054685B0034C2047FFB585B0DE01014C2047F73F0000CB4100000248812106
:20165000024A41601047000000500440674C000070B503461546012906D0002906D0114ACC
:201670002846FFF757FF70BD0F4800E00F480524834203D84008641E002CF9DCE34001200D
:2016900040031818820B012907D00649002380312846FFF741FFE0B270BD0249044B6C317C
:2016B000F6E70000835C0000A0BC862300830D23E8070021F8B51A4E0546716B1948CC0924
:2016D000E401002D11D01849097802290FD0007B044372B60120154F4002B84711482038BA
:2016F0000088C109C90704D016E0C07AF0E7407BEEE70F497463CC61400AC0070CD00120E3
:201710008003316B002D01D0014300E08143084631630749403948630020B84762B6F8BD72
:2017300080020021880000219B0200217B3F00004040044010B5224A0021516121498968B2
:20175000C90009D42149204BCA0598424B6B01D8134300E093434B631D49FFF72BFF10BDB9
:2017700038B51A4D287F002827D11A480088C009C00722D1124C606900281ED1684600F0F5
:201790008FF868460078012817D168464078102813D208206061686A4009400120600E4ADB
:2017B0000021D1620D4A02211160012108432060032108436862206038BD0948804738BD32
:2017D00000400440180000210000930880020021CF680000680000210011044080E200E0A7
:2017F000C33B00000749002800D00420064A72B60978C90701D0105800E0802062B640B2E3
:20181000704700006B0200215860044010B5034CFFF7D2FE20680028FAD110BD0011044000
:2018300010B541200E49C00088470E490246886B496B90244B01C104C90E0B430A49634363
:20185000497D5943094B9B68FFF7EFFE10BD10B5FFF7E6FE040001D1FFF7E2FF204610BD90
:201870007D3C000080500440800200210040044010B501880A05930F084A03D18905890D1B
:20189000112901D0904710BD90470446012803D172B6FFF7C5FF62B6204610BD45260000D3
:2018B00003B40148019001BDA56F000000000000010003000A001F005900EB003902EA041B
:2018D000F9099712EB1FA132784A0A66FA828C9E63B617C964D6EDDEC1E3E0E5FF00000032
:2018F000A36100007F1407134D00F1242E1F133FB00A3F0007FF00003040004001400340F3
:2019100007400F404F40CF40CF41CF43CF47CF4FCF3FCF2FCF1FCF0F000000000F0008003E
:2019300000003F00000040003F000000040068000E00DC00060043001A000500000000001B
:20195000020000003F00000000000400C00000000400C0000000070050C00091007070C066
:201970000091007082312100319110B10070018101B100A18231329110B10191111041810E
:2019900041224F40F106007051C0019130181039833108D01831416F3100319110B18314DA
:2019B00014165B680070251050C00091F4C3C0C02014036F3110410422C082312100319109
:2019D00010B163393110410482C082312100319110B163393110A2C082312100319110B1E5
:2019F000501015310514059200703F6452C0311031066131C102426412C131102139710604
:201A10005131E102426400708A65996588C0208250398039001E9F4041C001301814181A95
:201A300089C0308260398039001EA94041C001301914191A3C64369110B1349110B154B0FE
:201A5000007154A064B0F0800022AF404012B09032B053825339533985643F6411C122C1DA
:201A7000426470C1C26811C1C2C0426470C1C76850C000912772989215161416421053108D
:201A9000F0C12182313131398139313151B070B272652772999270B262107310F0C33182BF
:201AB0002131213981391B107265E2C08231608280318039020061B00071329110B151A014
:201AD00061B0277230C2F36800008012B09032B0007050C000912772999262107310F0C3CE
:201AF000318221312139813951B070B27E652772989270B242105310F0C1218231313139FD
:201B1000813931311A107E6551A061B02772B0C018693F6401C122C1426401C1C2C0426428
:201B3000151A3C64359110B153828564C012B09032B000703F6472C281C0426422C111C1AA
:201B5000426402C011C1426462C031C3426462C311C1426402C311C14264538253398564B5
:201B7000E2C347641122404142C281C8426452C211C1426472C2E1CE426402C281C8426496
:201B900002C201C84264B0C0546900703F6442C201C8426452C211C0426472C2E1C0426449
:201BB00002C001C1426462C001C3426422C101C1426462C301C1426402C301C14264538285
:201BD0008564007061B000711214231C7A4D339110B10070329110B17269007061B00071A8
:201BF0001318321C8649329110B10070339110B17E690070C2C047641510C2C01216476416
:201C100041311514C0C0803105145410A07804040070E6C0863101CC161467106182F0C37A
:201C3000010417140070067305720B720E7250B00071818060B050A092804122C345808018
:201C5000F1C11004301601110114016CD661D761D861D961DA61DB61DC61DE61E061E2617B
:201C7000E461366339639180F2C0210421318280422A1214321601112114016CEE610B6254
:201C9000F4613963EE610B62F4613963E661E661E661E661E661E6619464E661F964E66109
:201CB0002A65E6615665E6614667E6611012B0900E720673057210123090A761F0CF3C672A
:201CD000D4C103C0C0C3546440785091507810926078209270783092807840929078609266
:201CF0003078909110824039F00601101031101400924267E661BCA0E2A054A0F08050225E
:201D10001546408000222B470D6240A02D828D318D391082F1C0100409101A824A391A04D5
:201D30001082803910040E10AB10BC10C21063642972E0CF3C6713B003B0C86653B050B062
:201D500054B064B013B0A5661082E0223846AE660071418001222B47F08010224B46F0225B
:201D7000184764B03122384263B0CE661082E02238467066386264B06F818F318F3DD0DF0B
:201D9000FF923C670071418001222B4764B0F0805022654263B01182C1226046CE660567CC
:201DB0001182D122524670665262618172818131813D8231823DC0EFF19202933C670B62DD
:201DD000B081C091D381978290A2D3187F4EF30B1316E31CA44AC391E3813B149062BA1C37
:201DF0008B46231E8B4AE31C8B4E90B207228B4290A21B1A9662E31CA44AC391E3813B1885
:201E1000AB1CA04E9B1CA24ABC1CA442B2101082D0229D42F0801022A4466364A566A46213
:201E3000AB1094629B10946200703082F1C0100463B00071A86ABC10E0B00070B281C29171
:201E5000D281018212185181121841828131813D121CBF4AE2B032B0B0DFF2923C67F1C72A
:201E70002114C34E12C86291729131B0E1B0007008C006C000C86091709100700182B081EE
:201E9000C091D0811018518110180614E18042828231823D201CE44AE2B02122E84632B06E
:201EB0000510A0DFF5923C672122E842E2A032B031824139F0C00104011EF642181610C04C
:201ED0001030081C04476010103C0610F1C76114FA4E16C8669171818131813D161C014B47
:201EF000769131B006C008C0007061818131813D408280390118F11C174B0114B080C02270
:201F10001747BCB033B090EFF1920F933C67007003A063B064B0EFB05665007140800022D6
:201F30002B4764B02A65EFA00071408000222B4764B003B03862018262818231823D80EF80
:201F5000F19202933C6703A05665E661A2806364E66150B00071E661E092D08200223D47BF
:201F7000C0B20070A080F022594330B002C1623101C0A080001E5243F0225343A0F5603109
:201F9000603953632010101A136F236E11161216546B0070AD78000071B3000000000000AE
:201FB0000000000000000000C96F0100857301004517010049730100FD790100F7790100DD
:201FD00099730100000000005F790100ED2001005D2D0100256C0100819100004B7501000D
:201FF000E9DA000005600000FD5A0100AD3F01000000000065350100BF77010075CA000053
:20201000F6C0080000004100000001C3100000024210000003C414000004C518000005C602
:2020300018000006C71C000007C920000008CB24000009CD2C00000AD33800000BDA50005C
:20205000000C18B800000D3FA600000E3FA700007FFFFF3F00F6C004000000C31200000162
:20207000C416000002C518000003C61C0000044418000005C820000006C924000007CB2A76
:20209000000008CE32000009D24000000AD85800000BE59000000C2BBC00000E3FAB000068
:2020B0007FFFFF3F00050000B1540100D1720100450301004F7901006B7A01007DFD000093
:1C20D00003610100AF790100BB790100B5790100102000006520000065200000C8
:2020EC002DE9F04FB14ABB4C02F12001096804F11000243201601268011D0A60AC49ADF1A7
:20210C004C0D0546082214F049FA28B9A9490A682846026049684160A748A849C0F8B010DF
:20212C00A84DC0F8BC500026C0F8B860C0F8C860A34FC0F8CC60A44CC0F8B470A34BC0F8BC
:20214C00C040D0F8B010C0F8C43000F1B00509B130468847DFF8789231463C2209F11800D2
:20216C000FF084F901F09EFC0121C9F80800E82015F00AFBE720092115F006FB0DF0AEFD70
:20218C00C84C9449A56209F15400C860D9F80870A760F520314615F0F7FAC34F0D200E2581
:2021AC00787007F10C01BD7007F118000DF020F8B860787815F0B8F800280CBF0825351CA6
:2021CC00B87815F0B1F808B945F01005B749B86815F030FBB649C82207F1240012F00AF9B0
:2021EC00B4487860102D10D1A06A70B1C26862B1FF208DF808004FF6FF77ADF80A7002AD44
:20220C00ADF80C7095E803009047A2A015F072F9DFF8A48208F1140008F108010CF0E8FF99
:20222C00C8F80400304615F02FFB3746A8F10205824605F8026F02206870384615F06EFBF0
:20224C000146D8F804005246C9B212F051FF7F1C022FEEDB994908F120004FF4FA7212F0B1
:20226C00C9F8974D05F11000291D0CF0C1FF40F20D312860552015F080FAE0200C2115F087
:20228C0083FA4F20032115F07FFA5720052115F07BFA4E20042115F077FA5920032115F0E2
:2022AC0073FAC94904F13000642212F0A3F8C749E0604FF47A7204F1E40012F09BF8C44951
:2022CC002062642204F154000F9012F093F8C14920610A2204F5847012F08CF86062012167
:2022EC0009F104000E9009F1040014F0BFFF04F1C0074FF0060A4FF0010B231D1097C44D28
:20230C001193B9F80400410877D399F80170A06A002F6CD131460C9130B3076927B38DF887
:20232C0010A0ADF812A00CA8ADF8146004AB009093E8030032460423B84720B90C9819309C
:20234C000C90A06A12E08DF810A03046A36AADF812A004AA0D905F69ADF8146092E8030021
:20236C000DAB0422B847A06A31460C91002833D007698FB38DF818A0ADF81AB008A8ADF878
:20238C001C6006AB009093E8030032460E23B84710BB0C980FF0A4F811F054FFC1B208A8CD
:2023AC000FF090FD89F800B021E0C046A8FF01000C0C0000F01200503C0C00206549010024
:2023CC00154D010029F800005550010031D60000EC2000205C2400200C9889F800600FF070
:2023EC007FF8584614F00AFF584615F065F80E98594614F030FF48468088810807D308F046
:20240C003DFB0E98022114F026FF48468088C10860D3C04832220C3830F80C1F4FF6FF734A
:20242C008B420BD041894B0808D301F44073B3F5407F03D14FF6FF4319404181521EEBD13F
:20244C004FF440704FF4807113F050FD00283BD1B04F32200C3F37F80C2F4FF6FF71914237
:20246C0030D079894B082DD311F4407F2AD102208DF82800ADF8202008A80AF085FA18BB8C
:20248C0078894FF6FF5140F480707881084078811AE0C046544920436F6C6C6563746F72D8
:2024AC0000C046C0101C00204C230020A55101002970010079710100E0230020CDFF000004
:2024CC0010260020401EC6D10E98042114F0C3FE48468088000925D30E98082114F0BBFEF2
:2024EC000A208DF82000B9F85000014615F0DDFA8DF82100084615F084FA8DF8220008A80F
:20250C0010F076FF0F9815F0A1F8012802D10F9815F0C9FA206942F2107115F01EFA0F9888
:20252C0015F0BFFA6888410805D37B48594614F092FE28464088810805D37748022114F04D
:20254C008AFE28464088EF7FC11049086BD3A8687F1E80465ED07F1E58D07F1E31D07F1E42
:20256C005BD16B4908A80E220DF00AF95FEA080005D0076808B112F0FDFF381CF9D1AE6017
:20258C008DF82D600BA9E12012F0A6F9502008A9FEF7F0FE09A9E22012F09EF90DF1220155
:2025AC005320FEF7E7FEEF681FB1396809B108A88847A87F022814BF0320042014F01EFE36
:2025CC002BE02A7E688B0AE0E56D0100AD6D0100916D01008F790100401C80B268835FEA27
:2025EC00080708D0B97C8A4202D1F989884203D03F68002FF6D131468142EDD0A98B5320BA
:20260C0015F0BBF830460FF0B5FB06E0304602E008150020584610F0EBFC3F48082114F01D
:20262C001AFE28464088C0080AD34120314615F09DF8504614F0E2FD3748042114F00BFEFF
:20264C00A088400838D3607800090DD310F0F6F94FF6FF71ADF82000814205D002208DF88A
:20266C00280008A812F0B8FC607840091FD3E77857B984F803B01EA014F03CFF4120594612
:20268C0015F074F8052008E0E6701DA014F032FF4120314615F06AF8504614F0AFFD10983B
:2026AC0014F0D4FF012802D1109815F0FCF911986670594614F0CFFDB9F8040000287FF45B
:2026CC0020AE164840684FF0FF3115F0D5FA00283FF417AE1148407810F076FD071C3FF4DD
:2026EC0010AEFEF7C3FA384614F020FF09E6C0465065726D69744A6F696E2D4F4E2000C01D
:20270C005065726D69744A6F696E2D4F464600C084070000A81500200A1500205C2400209D
:20272C002DE9F04FADF1240D12F0C2FD15F09FF9804608200BF0BAFF0FF038F810B19EA03B
:20274C0015F096FAA94C6068406880476068C16804A888476068836804AA00200146984799
:20276C00A06010B99CA015F083FA14F0BBFBA14FC4F8E070A04DC4F8E4500026A4F85C60B5
:20278C009B48C4F8DC009D4BC4F8E8309C4AC4F8EC209C49C4F8F01004F5C877C4F86C71D6
:2027AC0004F1C805C4F8705104F1DC00C4F8740113F0DEFB04F18007934DC4F88871944A01
:2027CC00C4F8C4509349226104F1F40061618F4BC4F88401904FC4F81431904D2762904AD8
:2027EC00656290496264B4F85C30A16443F00200A4F85C008C4FE76104F14405C4F880510F
:20280C008A48C4F81C0113F09DFB8A4FC4F88873874BC4F884338A49C4F89413874AC4F8CE
:20282C009023894FC4F89C73864BC4F898338849C4F8A413854AC4F8A0237F4DC4F88C53E5
:20284C00854FC4F8AC73834BC4F8A8338449C4F8B413824AC4F8B023B4F85C0084F8806346
:20286C0040F00800A4F85C00D24FC4F8BC73D04BC4F8B833D149C4F8C413CF4AC4F8C023E9
:20288C00784D2E706E70CF4F2E61CD4BC4F8CC73CE49C4F8C833CC4AC4F8D413DFF84893F2
:2028AC00C4F8D023CB4FCA4BC4F8DC73CB49C4F8D833C94AC4F8E413CA4FC94BC4F8E02396
:2028CC0009F10E01D84A3E700888C4F8E8330E30167080B214F006F807466F6117B915F0C2
:2028EC0093F86F6900978DF804609DF80500CF4966F301008DF805009DF805004B4666F3CF
:20290C0083008DF80500D8899DF80520088066F307128DF80520ADF806006869694608228A
:20292C0014F01CFB2F626E6211F018FECE4D2878012802D0304602F01DFBCC48CC4F06701D
:20294C00AB463E709BF80000012802D0304602F011FB40461CF0E8FF01F02EFE13F0E2FF50
:20296C0094F82F0411F0D6FD012002F003FB0EF038F8D04806709BF80000012802D03046E7
:20298C0002F0F8FA0DF07AF8CB4FCC4A0721334607F1140013F000FCC94DB84604F1640788
:2029AC004FF48042C749069728784A808946087004F158020792EDE052616E646F6D5F73C0
:2029CC006565644175746F6D617469632829206661696C656400C04643727970746F206F2A
:2029EC0070656E206661696C656400C008020020517C00003D2F0100096B0100059E0000C7
:202A0C00C1D30000DD150100E005000035DD000015360100A54A01003D7901006976010059
:202A2C0015CD000031C3000059A90000D16801001DF500008D6200000D110100E55401001E
:202A4C00D1760000B5DE0000055800006936000065090100857A0000FDC50000E57201000C
:202A6C00F9920000B42F0020E868410907D32E208DF8140005A80FF0E5FDAE48006841082C
:202A8C0007D325208DF8140005A80FF0DBFDA9480068810807D326208DF8140005A80FF0A7
:202AAC00D1FDA4480068C10807D327208DF8140005A80FF0C7FD9F480068010907D3292079
:202ACC008DF8140005A80FF0BDFD9A480068C10909D38DF815602D208DF8140005A80FF06F
:202AEC00B1FD94480068010A09D38DF8156030208DF8140005A80FF0A5FD8E480068410A37
:202B0C0009D38DF8156035208DF8140005A80FF099FD88480068C10A09D38DF81560232087
:202B2C008DF8140005A80FF08DFD82480068810A09D38DF8156036208DF8140005A80FF08C
:202B4C0081FD7C480068C00B0FD3D9F8087067B1D7F80CA0384615F087F8384612F00AFDAD
:202B6C005FEA0A07F4D1C9F80860676D6FB114F07EFF616D666503911CF0D6FE0398A065DF
:202B8C000FF060FD079812F0E7FB3046E86015F067F8287866490B783BB1674F183F17F84E
:202BAC00181F884222D05B1EF9D1304625E0C046714301001D64010011C50000599F00004D
:202BCC00C1690000456B0100D9E30000593B0100F96301008546010071670100D96E010073
:202BEC00D3790100853000203C200020F8684FF0FF3115F041F878690088E86015F02CF844
:202C0C002878A9890FF04EFC14F031FF98F8011088F801608A080BD2C90814D31CF084FE22
:202C2C00304602F0A7F910E087300020242000201CF07AFE9BF80000012802D0012002F030
:202C4C0099F914F014FF1CF06FFEE868800905D3069813F06CF80028039035D1E868000C73
:202C6C00FFF402AF14E0C046612600208930002081300020D02909D18178E970C178697022
:202C8C000179A97087686F61C168A96114F04EFC287810F099FA002803903FF4E5AE017828
:202CAC00D029E7DAA0650FF0CDFC079812F054FBEEE7C0468630002084250020C37A0100D9
:202CCC00780700206426002014F0D1FE94F86C10491E84F86C101CF027FE039801788DF89B
:202CEC001410A0654778CFB1DC2F0DD0DD2F0BD0E42F09D0F32F07D0DE2F05D0DF2F03D0E9
:202D0C00E82F18BFDB2F0BD10AF06AF89DF81400162805D103A812F01FFB01E00FF092FC85
:202D2C009DF81400162893D0079812F015FB8FE7881A002084070020A81A00202DE9FE4F64
:202D4C00DD4981460122A1F130000260D8480768002FFCD0D74AE34EC027D848D84B1760B6
:202D6C003268920808D2324652F8042C03F14104120C42F0F00222704FF0000A8346C1F86F
:202D8C0000A0DFF88CC3DBF80810E04F0191880E43D2480E41D3802018744FF6D802A3F8BA
:202DAC00512018703868C0F30464162CA8BF203C1E460F3E307800F01F001628A8BF2038E9
:202DCC00844223D0624602F1980EE44ACEF800A0251A022D05DC15F1020FB8BF6FF0010517
:202DEC0000E002254019156800F01F05844245F4F855A6F866504FF001051560E8D110684B
:202E0C002E4616601068CEF80050106838460068C0F30420162808DB06E0A7F1D000006822
:202E2C00C0F30460162800DB203800EB2170401C162805DA10F10A0FB8BF6FF0090000E030
:202E4C001520D54E00F01F0040F4F850A3F85900306880083ABFD148C0F800A041F0406133
:202E6C006246C80E8E0E80F0010000F00100106086F0010000F00100906001980FF016FD57
:202E8C000146182012F042FBA7F13806CD4C30683568A4F10408C0F3870105F0030041EA45
:202EAC000021D8F80400C04D446840F2FF32534688B22C21009028464038A047F06AC0F36B
:202ECC000D011C2012F022FBB549706A014000F07C400143142012F019FB316A01F47C001E
:202EEC000904090C0143102012F010FB7D4AB06A1268C0F30351C0F30344520813D2DBF8B5
:202F0C000020130511EB237103D41029A8BF0F2100E05146120414EB227403D4102CA8BF9A
:202F2C000F2400E0544644EA011400F47F4200F0FF01B9F1220F42EA044241EA020124BF92
:202F4C0000F0804001430C2012F0E0FA954CB9F1220F32BF01202068C0F30070B9F1220F15
:202F6C004FEA400040F0200085F8090126BF2068C0F3407001208D4EB9F1200F40F0100010
:202F8C0085F8090138BF514606D33168C80C00F44070C1F384510143282012F0B7FAB9F1B4
:202FAC00200F26BF3068C0F301505046B9F1220F4FEA400040F0600085F80C0126BF2068E4
:202FCC00C0F3C0605046B9F1220F4FEAC00040F0800085F8010126BF2068C0F3455050462E
:202FEC00B9F1200F4FEA800040F47C40A5F89C0138BF6F490AD3306801038A15920501F4B6
:20300C007C1100F00F00114341EA0031082012F07DFACC3F4FF480002860664AB86D40F26A
:20302C001E216FF31F40814216D93868030E03F00F0113F00F0FC0F3034018BF491E07289A
:20304C0005D006280EBF0720801C00F00F0041EA0011A2F108000170DDF804C0CCF381476A
:20306C007F1E02D07F1E31D02CE02068810C29D24FF480412960D2F80210430AC0F3033778
:20308C0003F0800321F08F010B4347EA0301C2F80210D2F80130060A66F30303C2F8013069
:2030AC00116800F0E70721F0E70147EA01000CE09402224300600C4040100940AC3F00501B
:2030CC00156208404FF000402A46106005480068C0F3C0070FB94020A8624FF40070286426
:2030EC0002E0C046B03F005020684027C0F3C14040F0300085F8C800CCF3815080B3401E34
:20310C0008D0FFE7401E23D0022122E08813005000002043012012F065FE064604203146B4
:20312C000FF0B6FD042012F05DFE8642FAD12248066826F07F4012F07BFCD8F81400036848
:20314C0007214FF06022300E98474FF480602860032104200FF09CFD09E0C0462C2009404E
:20316C00042001210FF094FD144812F061FC203C206800F03F0085F8CB0FD8F80030124EE8
:20318C00D96830680220884710480D4C076001212160BDE8FE8FC0460000094094042A4318
:2031AC00FCFCFC008C13005040A00C409813005000803F400A600840A83F0050BD37860097
:2031CC0094046042A40100102C20094000600C402DE9F04FDFF860B30F460446F80BADF134
:2031EC00140D80F0F181DFF84C83B80F80F0A681B80880F09381DFF83883F80A80F0F580FF
:20320C00380B80F0CD80380907D2F80FC0F00E8227F080470FF0AEFB08E214F028FC8146E2
:20322C0013F03EF9002800F0B580082014F014FB002840F0AF80802014F00EFB002840F034
:20324C00A98004A80CF0B2F9012803D10498002800F0A0805846C9300078002840F09A8094
:20326C0000240125E0B214F09BF848B1867A3EB1857290F9090005FA00F0C0B211F070FF8D
:20328C00641C032CEED344460320207504F1B40014F0E3FB48461CF047FBC948002632465A
:2032AC000168066050F8081CC64940F8086C04F1380014F0E2FB304613F094FA14F02AF8D1
:2032CC00A168401A010BE069C1F1FF3282422CBF08444FF0FF30E06194F8200020B1206997
:2032EC00E169B1EBC02F25D913F0DCFA314600B12946081C1BD0D14840F6090101804680D0
:20330C00417B05F00F0221F00F010A434273017B06F00F0321F00F0143EA010202733146FB
:20332C00416014F07BF9418811F4406FFBD084F82050E66111F0CAFCC1483146066002201E
:20334C0013F09CF8022012F02FF911200AF00CFE207818B96068483014F097FBB948007891
:20336C0010B90E200AF000FE94F8210020B184F82160052012F018F9B348A0612675B4F95B
:20338C008C00B4F98E10884214BF022007200DF0F5FB02E048461CF0C7FA27F0080739E7F4
:2033AC004446201D056811F0BFFE38B12846ED696FF4807100224FF00073A847E06848B10A
:2033CC0013F0A8FFE2686168801AC860000BC8600026E6609D4904F13800002214F04DFB42
:2033EC0027F400670220207514E714F040FB064613F056F84446216F0028884600F08880A9
:20340C00002900F085809249042504F138000022257514F032FB30461CF086FA04F1B400B9
:20342C0014F01BFB13F076FFE060D8F810006060D8F81000416AC90803D3036A29460022DE
:20344C009847012010F00CFA824814F0E7F865684FF0010985F8159060680EF00BFED5F8D9
:20346C0008A040F60A02D01F564600F1010C00E01E46736833B119888A4203D0884218BFE9
:20348C008C45F5D100217160727B09F00F0322F00F0213437373D8F80C201288904225D0E3
:2034AC006046904222D02C8E0CB3696305F13002518095F83C0001F00F0320F00F00034327
:2034CC0085F83C3095F83D0009F00F0420F00F0044EA000385F83D307260707B01F00F0426
:2034EC0020F00F0044EA0001717300E0E1605046694609F0B7FD684614F080F813F032FF1D
:20350C00504614F08BF85146484612F0B7FF02E030461CF009FA27F4806787E007F0F6FCEC
:20352C0040467030006808B927F002077EE0C04610270020182700201828002014F097FA01
:20354C008146042012F04EFCC0B1207DB0B14046006898B12569064613F0DCFE801B2061AF
:20356C00000B2061A84202D240194008206140F6C41181422CBFB0F5967F216148461CF044
:20358C00D3F911F0D1FD88B1E56920466FF4807100224FF00073A8474046683000680028D2
:2035AC0008BF47F0020701D00FF0E4F92046A46900214FF080630A46A04727F0005735E0DB
:2035CC00141004408D32010014F051FA22490E6846B306F1280106C90A234FF0E0450B40C3
:2035EC00154008BF002B1DD106F1280191E8300006F1280393E8060006F12803AA43A1432B
:20360C0083E806001CF090F9B16869B1002D08BF002C09D030692246B6F93C10B4682B46E3
:20362C00A04701E01CF080F927F480471FB15846394614F032FA05B0BDE8F08F24300020E5
:20364C0000000460E20B0000E5C600006DE700009168010001010E04982700202DE9F04FCC
:20366C00ADF1840D1A9104461B920DF15F00CA491C93082213F072FC2046694611F0DCFEC3
:20368C005FEA000B03D1002001461F90FAE102200027A41C1D90D44E1F97204602A910F066
:2036AC00DAF95FEA000800F0E9811F990DF1410016220DF0DBFE9DF809707F1E00F08780D9
:2036CC007F1E40F0D381B8F10A0F40F3DA81A41C06A80422214613F041FC241D07A802221E
:2036EC00214613F03BFC42F20B000DF11E0110F039FEBDF81E00BDF81C10884200F3C181D7
:20370C00A41C14F8010B14F8017B14F8015B8DF8410014F8011B8DF842700DF141028DF8EA
:20372C004350204604F00AFECF4909780028044400F0A78101290BF1020700F08D814FF4F7
:20374C0000500DF1570110F00DFE0DF157000DF15F01082212F022FF40B11A990DF15700B3
:20376C00082212F01BFF002840F0768142F2010006A905F0BBFD42F20B0007A905F0B6FD80
:20378C0042F205000DF1410105F0B0FD0DF1420142F2060005F0AAFD0DF1430142F207006E
:2037AC0005F0A4FD11A942F2090005F09FFD9DF8440028B1022840F04F8142F2030001E0EB
:2037CC0042F20D000DF1450105F090FD44E1B8F1040F40F35681A41C14F8010B14F8017B8B
:2037EC0014F8015B8DF8410014F8011B8DF842700DF141028DF84350204604F09FFD0028B9
:20380C00044400F03E811A9808A905F017F89DF83E00002840F002819DF84400002878D146
:20382C00B6F84E70002F00F0F780B6F85200874207D0308B718B884201D108F0A7F9B06DD2
:20384C0020E0B76D4FF4005004A910F08BFD14F0FFF94FF6FF791F9D1E90AA46B6F84E0061
:20386C00A84240DCB06D4FF6FF7149450AD04FEA490707EB89073818808810F02BFDB06D54
:20388C003F1820D1B6F84E300746002B08BF1F9D16D01F9D1846BF1FBF1DFA782AB1401E48
:2038AC0005F10105F8D1BF1D0AE014F0E0F8B6F85210491CA6F852101CF036F8B6F84E30BA
:2038CC00AB4200F08E801A9809F062FBB8800120F870FD788DF83E50B888ADF83F001F9BC2
:2038EC008DF82B309AE0B88810F018FD0146082204A812F053FE40B1388801041E9814F02D
:20390C00B2F882453CBF8246A9466D1CBF1DADB2A4E7B6F84C70002F7ED0B6F8500087427B
:20392C0007D0308B718B884201D108F02FF9706D1FE0776D4FF4005004A910F013FD14F01D
:20394C0087F94FF6FF791F9D1E90AA46B6F84C00A8424BDC706D4FF6FF71494509D009EBCC
:20396C0049173818B0F81F0010F0B4FC706D3F1821D1B6F84C300746002B08BF1F9D18D0E1
:20398C001F9D1846213F2137BA7F3AB1401E05F10105F8D121370CE06C01000014F067F8EE
:2039AC00B6F85010491CA6F850101BF0BDFFB6F84C30AB4215D01F99384621220DF056FDFE
:2039CC001A9809F0E5FAA7F81F000123FF2039462122BB770546787208A8FD7213F0BEFA4D
:2039EC001CE061205BE0C04600180020B7F81F0010F094FC0146082204A812F0CFFD38B193
:203A0C0079681E9814F02FF882453CBF8246A9466D1C2137ADB299E7642040E09DF83E0028
:203A2C000DF14101162240F004008DF83E000AA813F094FA9DF844000BF1020748B19DF85C
:203A4C0056500DF1450029460FF02EFD2D1A8DF83D5008A80EF06CFA1D9808EB0005AD1CF5
:203A6C00A8B21D9006E0C0460A02002044440BF10207A41C1D9887423FF70FAE1D9802287E
:203A8C0003DC1F990A46672005E0ABEB00021F980BF10201921C1B9B19801C990A8021B06C
:203AAC00BDE8F08F2DE9F04F5648554C007800212422ADF13C0D08232070684614F0C4F853
:203ACC004FF0010A04F11805002128466A468DF818A014F0B5F8656014F0AEF8294604F17E
:203AEC0008020EF013FD6070102012F019FE011C0ED0D0200027087022464F7052788A7014
:203B0C00CF700F7126468F603078CF6010F022FA13F0ADFFDFF800830D90002488F80340FF
:203B2C0012F026FA4022214608F53B700DF09EFCBA4D05F1080001882C2707FB01F00CF07F
:203B4C00F3FDC8F8100308B913F05EFFE87A29894143480000EBC1000CF0E6FDC8F8140333
:203B6C0008B913F051FFE9882889484380000CF0DBFDC8F8180308B913F046FF288980000F
:203B8C000CF0D2FDC8F81C0308B913F03DFF288980B12246D8F8101389180C75D8F810131D
:203BAC0089180C71D8F81013401E114402F12C028C81EFD1A988880000EB01100CF0B4FDE5
:203BCC00C8F8200308B913F01FFFA1464FF6FF7BCDF8309040E0304612F0A9F80B900BA862
:203BEC0011F0BAFBC6E0304612F0A1F80A900AA811F0B2FBB9E009A811F0AEFBA3E0C046D5
:203C0C005C2400203C0C0020AB7AD8F820734846860006EB0016D8000CF086FDF119F31980
:203C2C00C860DF680FB913F0EFFEAF7A87B12046D8F820138919CB68C200A44642F803C009
:203C4C00C9687F1E00F101001144A1F804B0EFD109F101001FFA80F9AF884F45D4DC824864
:203C6C00FF210822C01D0DF001FC7F48FF21082288F8FB1210300DF0F9FB4FF0030C2E8943
:203C8C0088F80CC3A8F80EB3BEB104232046D8F81C13820002F801A0D8F81C1389184B70F5
:203CAC00D8F81C13891881F802C0D8F81C13761E00F101001144CB70E9D16B48042205214F
:203CCC000226343000F804AF42708170761E80F803A0F7D1644880F83CC098F880634FB1F4
:203CEC002046D8F820137F1E014400F11400A1F802B0F6D1022088F8F0021EB1D8F884039C
:203D0C0000B1804713F0D8FD98F92E0413F032FC12F044F913F080FB13F0C8F913F0BAF91C
:203D2C003F4E072556F8040B00B180476D1EF9D113F0F8F9454605F15400016809B111F0A7
:203D4C000BFB85F85E4028780FF03EFA002809907FF451AF33480078012802D0204601F0E6
:203D6C0009F9314805F160060470286E00287FF43AAF361D686E00287FF42DAF2C662B482D
:203D8C00C5F890016C662A4FC5F8947185F86A40284EC5F8986185F86B40274BC5F89C3145
:203DAC00AC70264AC5F8A02185F86C402449C5F8A4112849C5F8C810224FC5F8A871264F23
:203DCC00C5F8CC70204EC5F8AC61244EC5F8D0601E4BC5F8B031224BC5F8D4301C4AC5F8EF
:203DEC00B421204A0D98C5F8D8201BF09DFD05F21541522005F09EFC95F82F0410F068F90A
:203E0C0013F05AFD1948103013F097FD174840680FB0BDE8F08FC046080200203C2000206E
:203E2C00180300206126002084300020131001001B7A010045620100A1860000EDCD00007D
:203E4C001169010085560100D5AC0000FD9900006D620100E7FC0000E9A10000C5210100C4
:203E6C00F1F90000DD2E0100F40400205C2400202DE9F04FB94C0546A07AADF1340DC0002A
:203E8C000CF052FC0028089000F0A88113F0EFFD0B900AA9822004F09DF8BDF82800002886
:203EAC0034D14FF000084FF6FF76ADF8288024E0ADF81460BDF82800ADF81660FF21082244
:203ECC00ADF8100006A80DF0D1FAA77A57B143461946089AC8007F1E01F1010113501044E8
:203EEC008680F6D18DF82480D42004A902F0FEFABDF82800401CADF82800A088BDF828101A
:203F0C008842D5DC82200AA902F0F0FAC34F0020A0464FF6FF79A2463988ADF8280006E0B8
:203F2C00BE4FBDF828003988401CADF82800BDF82800814240F34281B94800784FF0000B48
:203F4C0001265C4608E0BAF80600641CA4B23CE0B348641CA4B20078A04208DC002EDFD10D
:203F6C00BBF1000F2ED1E87F0028D9D02AE0BDF828008DF802406946ADF80000D02004F05D
:203F8C0029F80028E4D19DF80C30012B08D19DF80B0028B90DF1030013F0DCF80028BFD130
:203FAC002F7D002F0CBF052209225E469F42CFD10DF1030005F1150112F024FC0028C7D0EA
:203FCC004FF0010BB8F806000024A04265DDBDF82800ADF802406946ADF80000D12003F090
:203FEC00F9FF0028AFD1BDF804008145ABD0ADF8100004A9D42003F0EDFF002840F003810A
:20400C0006A8291D082212F0FDFB00289BD028886F88ADF81400BBF1000FADF816702AD0A9
:20402C00287B98F80A708DF82400381C08BF00200FD00899024600208B88994509D0BDF87C
:20404C0028609E4205D0521E01F1080100F10100F2D1874207DC0B981BF066FC0898002873
:20406C0000F0D880D4E008992A69C000BDF828700A5040188780D42004A902F037FABBF1CE
:20408C00000F0AD0A87F9DF80610884205D08DF806006946D12002F029FAB8F80600A042E2
:2040AC007FF43EAFB8F80400DFF878A1002499E006AB184613F04EF850B9291D1846082224
:2040CC0012F0A0FB002808BFB8F8040000F088806F882888ADF816702E7BADF8140098F8D8
:2040EC000A708DF824603B1C08BF00200FD008991A4600208B88994509D0BDF828609E420C
:20410C0005D0521E01F1080100F10100F2D1874206DC0B981BF008FC089800285ED05BE010
:20412C00089A2E1DBBF1000F0CBF00212969C00011501218BDF8280031469080082206A8C6
:20414C0012F00CFF9AF8800330B1DAF8D0231AB1BDF8101030469047002603E03C20002019
:20416C00761CB6B2B8F80600B04221DDBDF82800ADF802606946ADF80000D12003F02AFF4E
:20418C00E82803D0BDF804008145E9D1BDF810000023ADF80400AF7F8DF8073004A98DF84A
:2041AC000670D42002F0A2F9D120694602F09EF9B8F80400B04213DDA04208D00B981BF0D5
:2041CC00B3FB089808B111F0D5F9002023E00B981BF0AAFB089808B111F0CCF91A201AE034
:2041EC00641CA4B2A042E7DDADF81040D42004A903F0F0FE00283FF45BAF0B981BF094FB1E
:20420C00089838B104E00B981BF08EFB089808B111F0B0F919200DB0BDE8F08F442000204D
:20422C0047200020080200202DE9F04F064692F808B0307D09AF8846ADF1240D04933528E8
:20424C00039205D0114606F170000A2212F086FEDFF8C8C238F07F0506BF604600884FF633
:20426C00FF700590F08A800934BF002008203076F08AC00834BF102080207076F08A40099C
:20428C0003D260460E30007800E00020B076F08A41082CBF20240024000928BF44F010046D
:2042AC007568002108F07F08307D06916D1E02280EDB0C2808DC0C2803D1022044F40854BD
:2042CC00069044F0030404E00D280CBF02200120044396F88C0008B144F00804E110220964
:2042EC0000D328B1DFF8C09299F8243413B908B1DF204DE149086ED306F12401DFF8ACA26F
:20430C0096F88D50079100EB0A011AF805300A7999183389491DCAB29918A54B1A880890A4
:20432C008A42C0F2378100284CD0049A039906F1840009F043FA0799002808603FD0806AE3
:20434C00B0F1FF3F39D070680023401E8DB196F88E10524600F80119515D491EC9B241B17A
:20436C008A1992F88320491EC9B2002900F80129F6D1079970660968896AB162090E00F871
:20438C00011996F82A1000F8011996F82910089A00F8011996F8281005F0030500F80119CD
:2043AC0002F0070141EAC501017071683589091ACAB27060A918318105E0DB2700E0F3273B
:2043CC007770E8E00023F08A7370C00828BF44F0100475686D1E336DA3B9B36D93B999F84A
:2043EC003D14012903D13089B0F5EE7F06DA200904D202290AD144F4005401E044F4805439
:20440C00012002E044F408540220069099F8020001280CD099F8800348B196F86B00042877
:20442C0005D1022024F48054069044F4005444EA8834B8F1020FA4B20AD0B8F1030F10D1FA
:20444C00ED1F09F58661284613F0F3FA6D1E08E0B9F81604001205F8010999F8160405F802
:20446C000109069802280CD0B8F1000F15D0BBF1000F0CD004990598814208D144F0400400
:20448C000BE0BBF1000F08D1B8F1000F05D00599081205F8010905F8011944EA8B24BBF1A5
:2044AC00020FA4B209D0BBF1030F0ED10399ED1F284613F0BEFA6D1E07E003990888001292
:2044CC0005F80109087805F80109BBF1000F05D00498011205F8011905F801093878F8B984
:2044EC0034480178307D0D2814D068B9306D28B999F80004411C89F800140AE099F825042B
:20450C00411C89F8251404E099F80E04411C89F80E14014605F8011904E0C0461A06002069
:20452C0044F48074201205F801092C7070683789401BC1B2756078183081200927D3B16DB1
:20454C0099F8800301B1316210B1307D0D281ED1726A12F1150002D113F056FA726A916A73
:20456C00481C9062306A3289B162471B0092D21B019090B20290706A96F88C202B46153061
:20458C0009F0E6F900281CBF7070071C07D10020707005E0E5277770F32012F07DFCF8B249
:2045AC0009B0BDE8F08FC046080200201C0400004A200020B82F00202DE9F04FCD4D286A30
:2045CC00416EADF11C0D02A888474FF00009D44FCDF80890B8688DF80C90002837D111F0A6
:2045EC000FFAC8B111F00CFA012815D011F008FA052811D011F004FA0C280DD011F000FAFC
:20460C000D2809D011F0FCF90B2805D011F0F8F90E2801D013F0F8F911F0F2F97870002899
:20462C000CBF48460120B870286A00F1200118B913F0EAF9296A2031096807F1180088473D
:20464C004FF4FA703885B74EFE6206243C63DFF8D882EA6998F83F444FF0010A494608013D
:20466C0000EB41108018867F2EB9437F491C9C42C9B2F4D102E0417FA14204D1824202D039
:20468C0010F016FEEA69DFF8A4B2686A1BC88BE81B0097F90100012805D00D2803D00E286A
:2046AC0018BF484600D105208BF8000098F86D1450699F4C50F82100C4F89C0012F00EFB8F
:2046CC00632005A910F008F998F83F0410F0D4FD064694F88E006AF3020084F88E0010F029
:2046EC00E5FB042825D010F0E1FB032811D094F8900040F00F0084F8900094F8970069F3DF
:20470C00030084F89700B07B052814BF2420292016E094F8900040F00F0084F89000292316
:20472C0084F8943094F8970069F3030084F8970008E094F8900040F00F0084F89000212008
:20474C0084F8940094F8950069F3871084F8950010F0ACFB042818D0B37A7BB99DF8140053
:20476C0094F89510401E60F3050184F8951094F8960020F03F0040F0180014E09DF81410BE
:20478C0094F8950061F3050005E094F8950020F03F0040F0020084F8950094F8960020F0C9
:2047AC003F0040F0200084F89600B189B07BB4F88E200A23401D484390FBF3F161F3CF02E4
:2047CC00A4F88E20B08994F890201923800390FBF3F102F00F00D4F890200F23484390FB1B
:2047EC00F3F161F31C22C4F89020E86994F89820017F61F3020284F8982094F89810007F77
:20480C00C01060F3C30184F8981098F92E040FF039FCB0F1FF3F05D0010828BF4FF6FF7032
:20482C00A4F89A00308971683368EA69401E414303EB51004FF47A71B0FBF1F0A4F8A0009F
:20484C0090690078A4F88290C4F8849094F88D3084F8A4006AF3030384F88D3013F026F837
:20486C00C8B9B089334A98F83F64B1FBF0F0C0B21070B1FBF0F03049022E887006D010F041
:20488C0015FB032807D105225C2001E00222A8202A4B1A700870BB682E6A6BB3484610F0AB
:2048AC001BF9F87898F83F14884212D13A7998F86D142E6AB8688A420DD102214A468DE88A
:2048CC000600366D80344B4602AA2146B047EC601DE02E6AB8687168884719482B6A80F8BD
:2048EC0000A01E68174880345946224607F11803B04709E0F0210020803422461148346837
:20490C0007F118035946A047B860686AA86298F83F0498F86D64F87007B03E71BDE8F08FD8
:20492C0090240020330701000802002060300020641F002084250020EC210020AC250020F8
:20494C0062260020E02E00202DE9F04F09AFADF13C0D08900A92388809911E46ADF81800D2
:20496C00101C08BF002000F07581017800274FF0010B401C4FF0FF39B846DA460A9061E17A
:20498C00252940F056810178401C0A902D2918BFADF8068004D10178ADF806B0401C0A9050
:2049AC0030291CBF4246434604D10178401C5A465B460A902A29CDF800804D4617D1049377
:2049CC0030680A9BCDF80890C01C20F00300001D306050F8044C1978002C009403F10100B7
:2049EC000A9018D5ADF806A06442009413E044460AE0600000EBC4004018A0F130040A986A
:204A0C0001780094401C0A90302901DB3A29F0DBCDF8089004932E2929D10178401C2A29B7
:204A2C000A9011D13168CDF80880C91C21F00301091D316051F8045C002D48BF4546017876
:204A4C002B46401C0A9011E0454643460AE0680000EBC5004018A0F130050A9801782B4632
:204A6C00401C0A90302901DB3A29F0DB02930AB1224604926C2904D04C2918BFADF80480A5
:204A8C0004D10178ADF804A0401C0A900BA8CDF80C800FAB07906429059300F0828069297F
:204AAC007FD0BDF818C075296DD0782969D06F2965D070294ED063293ED0732922D00A980B
:204ACC00401E0A90099801281AD966490C68B5F1FF3F03D0A84288BF6D1C05D86FF0004104
:204AEC00814294BF0D1C099D029508A80AA932466B46A04709993F18091A0398099165E025
:204B0C00454617E03068C01C20F00300001D306050F8040CBCF1010F014608B94FA0014680
:204B2C00079112F0BFFC0390B5F1FF3F4FD0A8424DD9039528464AE03068C01C20F00300B7
:204B4C00001D306010F8040C8DF82C005D46039558463CE0082035680490E81C20F003006E
:204B6C00001D306050F8041C082210230FA80DF071F9401E079040210170079823E0082305
:204B8C0002E0102300E00A233068C01C20F00300001D306050F8041CAA42BCBF2A1C049208
:204BAC000DE03068C01C20F00300001D306050F8041CAA42BCBF2A1C04926FF009030FA8FB
:204BCC000DF048F907900599081A0390009C241ABDF8065000945DB906E008A8202109AA88
:204BEC0011F074FA7F1C009C641E0094F5D50398401EB0F1FF3F03900FD1BDF806000128F4
:204C0C001CD10098401E009018D408A8202109AA11F05CFA00987F1CF4E70798017809AA55
:204C2C0008A811F053FA0798401C079003987F1CDEE708A809AA11F049FA7F1C0A98017880
:204C4C00401C0A9000297FF49BAE089808B14146017038460FB0BDE8F08FC046286E756C3E
:204C6C006C2900C06C0C0000BA482DE9F84F0025B94CB749056094F8E200002800F0638103
:204C8C00012800F02F81B54E02283CD0032840F05A8151F8250CD4F8B8100029A0F5C060E4
:204CAC00C4F8D400B8BF49420028B8BF4042814226DA4FF08057D7F8A4014568B4F8BC00D3
:204CCC0030214FF47F42082300903046A847D7F8A4014568B4F8C00004214FF4F80212232F
:204CEC0000903046A847D7F8A401B4F8D070456820214FF440620A2330460097A847012531
:204D0C0084F8D8501AE151F8258C12F07BFD2F4600B901273946924F38680028FCD0B14633
:204D2C00012609F10409D9F82CA03E6009B112F06FFDCAF30720C4F8BC0012F063FDAA4628
:204D4C0000B9B2463B68002BFCD0D9F800B0BAF1000F3E6001D012F05BFDCBF38440C4F8BA
:204D6C00C00012F04FFDAA4600B9B2463B68002BFCD0D9F81C90BAF1000F3E6001D012F036
:204D8C0047FDC9F38120C4F8D000B8F5C061C4F8B81000F09C8094F8D80068B9C4F8D41057
:204DAC00D4F8C000C4F8C800D4F8BC70C4F8C470D4F8D030C4F8CC30D4F8D400D4F8BC3013
:204DCC00002854BF02226FF0010204F1C8010F6800EB40008018421000EB927207EBA20039
:204DEC000860D4F8C810C4F8C43000291CDD1E293CDDD4F8CC0030B93429B4BF15391E218B
:204E0C00C4F8C81025E02A29BABFD4F8C8000B381E20C4F8C800D4F8C4003F28B4BF401CC2
:204E2C003F20C4F8C4001FE0D4F8CC00032812D011F10B0FC6BFD4F8C8000B30301CC4F86B
:204E4C00C800D4F8C4000028C4BF401E051CC4F8C450032508E011F1150FC6BFD4F8C800A5
:204E6C001530301CC4F8C800C4F8CC504FF08057D7F8A401B4F8C43030214FF47F4245680D
:204E8C00364800930823A847D7F8A40104214FF400321123456831480096A847B4F8C8601A
:204EAC00D7F8A40104214FF4F802122345682B480096A847D7F8A40120214FF440620A236F
:204ECC00B4F8CC60456825480096A84701E084F8D85040F2FF50404502D8801C40452DD2CA
:204EEC0008202EE051F8251C1E4F4BF2F5204843060A3868C0F3814001280AD111F024F956
:204F0C000FF0C6FE12F08AFC3111C010484306EBE03694F8E50030B91348006820F07F40AA
:204F2C003618760801E084F8E5501048310C0660012741600E4D8760287808B90B2000E095
:204F4C00052084F8E40003F011FEBDE8F88FC0462D400C402C500C40501E002000A00C4091
:204F6C0000800C40B43F0050102009403C600C40690B00002DE9F04F0546ADF11C0D12F0D8
:204F8C0076FDAA4FAA4C012D069000F0EA8012F0A5F8002800F0E1809D480078002840F0B8
:204FAC00DC809C480078002840F0D7809A480078002840F0D28099480078002840F0CD807C
:204FCC0097480078002840F0C88096480078002840F0C38094480078002840F0BE80384675
:204FEC0021460F78006A002F00F13C0040F0B580904C0068257880476168DFF830B2DFF88B
:20500C003C82AF00401AB0FBF7F6E068A1680027BA46524681464E4572EB0A0201DA8142B4
:20502C0006D83A4650468E42904145DA084600E03A460146891B4FEAE573BA4108461146E6
:20504C002A4612F09FF84FF47A72002306460F460CF0C8FE0BF0C6FC534600F6FC024FF0FD
:20506C000001B61A9F417042B94122DA72480268394630460CF0B6FE0F4606464FF0000121
:20508C007042B94115DA11F0EDFE0546206912F01EFD10B1206911F0E5FC284612F0C5F833
:2050AC002069314612F0C4FD206912F0BDFD002000E00120444620704446207800284CD13A
:2050CC00002738460CF006FD00B10127C146384600284FF000073ED15548007800283AD1FD
:2050EC00DBF82000564C436CA068022102AA98479DF8080078B3534DDBF82020A06895F999
:20510C0000103E4611F1020F18BF01264FF0010836B1926B95F900109047DBF82020A06822
:20512C00494E96F9001011F1020F03D0926B96F9001090476FF0010030703D4B2870384636
:20514C0083F8008012F092FADBF82000C169A06888478BF8017089F8007006981AF0E4FB5A
:20516C0053E001200CF0B6FC06981AF0DDFB2078012839D1012012F079FA11F0C7F960BB64
:20518C0012F075FC002502268146DFF8C080386AA8F80250416E267002A888470295386ADA
:2051AC008DF80C602D4A2A4BD0F850C0294630468DE803001068414602AAE047002801D501
:2051CC0012F022FC2349464691F90000FE60401C087048461AF0A8FB06E02078012803D139
:2051EC000020207011F086FF11F090F968B92078194D022803D1287808B112F005FC2878CA
:20520C00012802D020780228FCD007B0BDE8F08F85300020873000208930002086300020C3
:20522C00562600205726002058260020F021002062260020842500205C0C000088300020A9
:20524C00902400205426002055260020641F0020111D01005E260020612600209824002040
:20526C002DE9F04FA54E814606F120000068416EADF12C0D03A88847AD4CE76817B912F07A
:20528C00C3FBE7684FF00008388979689A4BCDF81C80C500097818781035890906D340F60A
:2052AC00485191FBF0F16D1805F5AF753B7D68438500352B0CBF47464FF4FA570DF12601E0
:2052CC00E8200FF009FB9DF82600032808BF44F62067E068007DED19352803D1D4F8E4039A
:2052EC00804745430220B3468DF82000864FDBF82000069507F10803826E186806A9904737
:20530C0001207F497F4D087029788BF80080012901D0FFF72FFEE0680589466811F022FBF0
:20532C003088000935D394F88073E1688FB34B6A4F6E986AB0F1FF3F25D027B3421C9A6212
:20534C008862030E07F80139E06890F82A0007F80109E06890F8290007F80109E06890F838
:20536C0028003870E268106A00950190801B281A80B20290916A506A92F88C20334615301D
:20538C0008F0E6FA00E0DB20D4F8C473002840F0A680294630460BF069FB642009A90FF054
:2053AC009BFA5A4894F88073007837B994F82F0409F0C4F8012805D08DE009F0BFF801280B
:2053CC0040F08980DFF848A1A81C87B20DF125010AF170000780E9200FF07EFA9DF825007B
:2053EC00012805D13D46C5F3022040F0180005E02D1DADB2C5F3022040F0080006F8010D51
:20540C0006F8015D55469DF82400A5F862800028EE670CBF3F484048CDF80C8002238DF8FF
:20542C00103005F12806A6F80280C5F8B80005F16007B86195F83500A5F8468020F00F00AD
:20544C0040F0030085F8350012F011FBDFF8CCA00A90B9F1010F1DD0B9F1040F1AD0B9F178
:20546C00000F14D0B9F1050F0ED0B9F1030F08D194F83F040FF000FFC07B022818BF3E1C99
:20548C000AE005F1600607E0DFF894A004E005F1440601E005F12806DBF820001A4B046DD6
:2054AC0002278DE880019868314603AA5346A0471C49002808800BD41B4991F900006035A6
:2054CC00401C08700A98CBF80C501AF02DFA0FE00A981AF029FA1A200BF0D6FC08E0002F1E
:2054EC0008BFE420F8D0114880F80080E420B8470BB0BDE8F08FC04684250020F0210020DA
:20550C00572600206126002090240020EF210020641F00204E9055550E7A5555A1980000A1
:20552C0019D20000C42400205E26002089300020080200202DE9F04FAC4C07460020ADF16D
:20554C003C0DDFF8A482ADF80C0004F10C0000688946017D252900F00281703005A903F090
:20556C006DF9002818BFC0B240F03B8101A804A90CF014FD0FF09AFC042814BF41F2081515
:20558C0043F2C82504A901A80CF008FD98F82B2201993B684FF47A7A504650430AFB1100F6
:2055AC00C01A8542C0F2D880D8F80422521A0AFB02F1C91A8D4200F3CF808542A34609DD50
:2055CC00002807DD95FBFAF04FF4916100B201FB003038609DF81F00002857D042F2040053
:2055EC000DF136010EF0BEFE12F032FB0699441A42F206000DF135010EF0B4FE9DF835009C
:20560C009DF81D10FF2804BF0A208DF83500FF2908BF0A219DF835609DF81C507448B4FB3E
:20562C00F0F2701884B25646A81054437043A04298BF041C41F20810241805A810F0AFFEE6
:20564C009DF81C103D68B0FBF1F24A43821A714392B272438B1A891A5B1B491B8C4201D9AA
:20566C00002908D56142994212D2002B10D5B4FBF6F109B203E06100B1FBF6F189B23A68A1
:20568C004FF4916303FB01253D6001E03D68002006460DF1120102A80CF080FC0298D8F877
:2056AC0004120024B5FBFAF280180290814203D998F82B32834202D998F898712FBB9DF89A
:2056CC001C00B6180004B04298BF361A9DF81F00002808BF9DF8200024D09DF81C00B6FB89
:2056EC00F0F085B2BDF833000EF018FE9DF83120014628460EF07AFF054610F03DFE0246AB
:20570C0008A928460EF030FD0CE0814204D8BDF81200401CADF81200BDF8120098F89B11CB
:20572C000CF0A0F989F8000088F8F501DBF80C00007D052811D19BF8150470B999F8000000
:20574C0003A9ADF80C0042F20C0003F0CFFDBDF80C00A8F8F00100E06524204641E00FF0A0
:20576C00A5FB042814BF41F2081543F2C825214800784FF47A7404FB00F13868491BA1F570
:20578C00FA62824206D2A1F57A61B0FBF1F24A43801A386068460DF10E010CF0FFFB3868F6
:2057AC00009998F82B2204FB010154430091611A8D4211DCA4F5FA648C42BCBF00F5FA6078
:2057CC00386098F89B11B8F878010CF04BF90146002089F8001002E099F80010652088F800
:2057EC00F5110FB0BDE8F08F0018002008020020A08601002B1A00202DE9F04F00289A4669
:20580C001446ADF1340D00F0F48011F47C1F40F0ED8011F00F0F00F0EC8007460591002024
:20582C0006900B900A904FF0000909904D4608954FF0010BCDF810B00546484607900598A3
:20584C0005990BEA000021EA0B014FEA4B0B401E059100F0AB80401E70D0801E5DD0001F6C
:20586C0040F0BE8042F205000DF10E010EF07AFD9DF80E60002E00F0B3801CB1276694F8B9
:20588C006B0006900720152607F8010B022301A907F8016B42F2010007F8013B0EF062FD87
:2058AC00684603A90CF07AFB06980DF0C1F90146019A00983E4640180090824206D8801A9A
:2058CC00BDF80C300090581CADF80C00009B50084946804609041804030C194300044B46A5
:2058EC0010EB080041EB09010AF0ACF90090BDF80C309DF80C009DF800209DF8011006F849
:20590C00010B181206F8010B9DF8023006F8012B9DF803200935BF1D42E00220152607F8FA
:20592C00010B042307F8016BBAF1000F07F8013B0CBF09989AF800002D1D4EE01CB1E76539
:20594C0094F86B00069005201526049B07F8010B0DF10F0107F8016B42F2040007F8013BB8
:20596C000EF000FD02A80FF053FB06980DF060F902999DF80F609DF80F30069AED1D4018C0
:20598C00000200EB6600B0FBF3F03E4602903F1D06F8012B9DF808109DF809309DF80A2044
:2059AC0006F8011B06F8013B327018E00320152607F8010BBAF1000F07F8016B034607F817
:2059CC00013B04BF0B9807F8010B05D09AF8000007F8010B9AF801006D1D07F8010BADB215
:2059EC00059800287FF42BAF2E4661E011F00F0F01D000205DE080468A4602264FF48039CD
:205A0C0008F1020509EA0A002AEA090A4FEA4909B0F580301AD0B0F5803014D0B0F500307E
:205A2C000ED0B0F5802009D0B0F5002004D0B0F580102AD1072404E0062402E0052400E071
:205A4C000424002704E00224012701E001242746A81C214600F030F847B104F00F04C0F351
:205A6C000A0141EAC42141F4004105E004F07F0400F0FF0141EA042105F8011B0912871919
:205A8C0029702D18B81C6D1C86B2BAF1000FB9D1022ED8BF00260BDDB01E4FF6FE7708F8E6
:205AAC00010BF019C0F3022040F0A00088F8000030460DB0BDE8F08FF0B504460846ADF16E
:205ACC006C0D401E70D0401E0DD0801E00F00981401E00F0EF80401E00F0E180401E00F096
:205AEC00AD80002042E142F2010007A90EF03AFC42F20B0008A90EF035FC42F206000DF1BA
:205B0C0065010EF02FFC42F207000DF166010EF029FC42F2050019A90EF024FC04A809F069
:205B2C0017FB06460DF1670142F209000EF01AFC9DF86700002808BF002503D0022010F03F
:205B4C003BF90546204607A9042211F007FA241D08A90222204611F001FAA71C9DF8640048
:205B6C009DF865309DF866109DF8674007F8010B9DF8672007F8013B2B4607F8011B610752
:205B8C0006F0070444EA916005F0030404AD40EA8410314607F8010B01240095384601941F
:205BAC0005F078FF0A309AE042F206000DF165010EF0D8FB42F207000DF166010EF0D2FBDF
:205BCC0042F2040019A90EF0CDFB04A809F0C0FA05460DF1670142F208000EF0C3FB9DF85C
:205BEC006700002808BF002303D0012010F0E4F803469DF864009DF8657004F8010B9DF807
:205C0C00666004F8017B9DF867209DF86770790704F8016B03F0030705F0070646EA9160AA
:205C2C0004AE40EA8710294604F8010B002700962046019705F02EFF001D50E042F21500FB
:205C4C0011A90EF08FFB13AF42F2160039460EF089FB15AD42F2170029460EF083FB17AE2C
:205C6C0042F2180031460EF07DFB204611A9082211F074F9083408222046394611F06EF974
:205C8C0004F1080708223846294611F067F9082207F10800314611F061F9202066E042F2C6
:205CAC0014000DF122010EF05DFBBDF8221002200A1258E009A8002120220BF0D7FB42F2DB
:205CCC00130009A90EF04EFB09A811F0EBFB024609A9204611F042F909A811F0E3FB80B2B6
:205CEC0044E042F20E0002A90EF03CFB0DF10A0142F20F000EF036FB0DF10B0142F20A008F
:205D0C000EF030FB03A942F210000EF02BFB0DF10D0142F211000EF025FB0DF10E0142F28A
:205D2C0012000EF01FFBBDF808009DF80B209DF80C709DF80D609DF80E509DF80A1004F8FF
:205D4C00010B02F00102001204F8010B07F0010042EA400206F0010042EA800205F0070015
:205D6C0042EA4012042004F8011B22701BB0F0BD2DE9FE4F0546287D012807D195F917005A
:205D8C000EF080F9B0F1FF3F00F02D819748EF7B017897481FB990F86B208A4207DB012F99
:205DAC0040F01E8190F86A208A4280F2198180462E6A95F83500B5F8289095F83470AC8B31
:205DCC004FF0000A5FEA060B029019D098F88033002B00F00281D8F89813002900F0FD80A7
:205DEC0006F0FF008847D8F8981306B20BF47F008847361830B2001D00B2C83086B200E044
:205E0C00C8260CB1241DA4B298F82404012809D147B1784802993F1897F804A0405C801967
:205E2C00401D86B209EB040080195044801C80B210F076FC071C00F0D08009EB0A003319AF
:205E4C003881002C03EB070078600EBF0020B819801C00217822C7F8A40007F10C000BF00D
:205E6C0005FB09EB0600FF2110220019A7F84C0007F13C000BF0FAFA07F12C000F2110221D
:205E8C000BF0F4FA00243C707C707868696A2A8D11F064F807F1840005F12C010B2211F0BD
:205EAC005DF807F190002946FBF797F86889A7F89A00287B87F89C00687B05F10E0687F8B5
:205ECC009D00326869460A60706848609DF800102046012908BF01209DF80110012908BF32
:205EEC0040F004009DF80210012908BF40F008009DF80310012908BF40F010009DF8041010
:205F0C00012908BF40F020009DF80510012908BF40F040009DF80610012908BF40F08000DD
:205F2C009DF80710012908BF40F48070A7F89E00A87D87F8A000E87D87F8A10095F83800C9
:205F4C0087F86C00AA8BA7F8A82022B1D7F8A400A96911F003F8A87F87F8AA00286AC7F8B9
:205F6C00AC00B7F8A800C0B1D7F8A400A8B17868401E7860F82101707868401E78600470AB
:205F8C00B7F8A810B7F8A8607868401A786038898019801C38817868B865B7F89E00410A81
:205FAC0013D395F8371005291DDB00F0040100F00100084317D108F1900630460BF044FB9D
:205FCC0095F83710304610F0EDFC98F8000039460DF0C0FF2046BDE8FE8F1A20BDE8FE8FB3
:205FEC00F120BDE8FE8FE820BDE8FE8F3C200020080200201C0400002DE9F04F044609AFFB
:20600C009A4691468846ADF1140D019411F02FFD98490D680290A54208BF4D68974C6FF0E1
:20602C00010B35B105F1800011F0BFFA002840F00F8110F011FA061C00F0158104F1B400EE
:20604C0011F00BFDC6F80C80B4F98C0099F80430401C86F83E306FF31F30A4F88C00C6F804
:20606C0008A0B4F88C00019AB0878348326197E80C004FF0000B2021DC4606F1180719405D
:20608C00104087E8030006F1200383E80018C6F834B062463263D9F80800B06386F83F20ED
:2060AC00D9F80070009207B1776398F80C0000F00F00022804BFD8F80800306308274046C7
:2060CC004368002B18BF002F40F0BE8000886FF30900B0F5305F18BF022006D196F83F00A6
:2060EC0040F0100086F83F00082006F1180191E8800106F1180342EA080240EA070183E880
:20610C000600D4F8F8000199814207D194F80401410824BF00F0FE0084F80401002D70D0DB
:20612C00039504F1700101980D6888460FF02DFEB1465F465FEA000A0FD1D8F800202AB1B5
:20614C00D4F8801030460AF01FFF18B9BAF1000F03D103E001275D4630E0554645B12A6809
:20616C00304629460AF010FF38BB002A1546F6D1039831460CF0CCFB051C02D0A9451AD145
:20618C00E5B9D9F80C10D8F80450087B00F00F00022813D1087BC01140080FD2002D4AD1EF
:2061AC00D4F8800050B1D4F8801030463A460AF0EBFE18B93FE0082700E00227BB46BBF17C
:2061CC00010F04D104F17000494610F098FABBF1020F0BD12F682A6804F170001FB94946BA
:2061EC0010F07CFA02E0494610F067FABBF1080F04D196F83E10284610F071FC3BF00800C9
:20620C0004D104F17000314610F068FA1BF1030F11D096F83F00B6F93CB0009940F08000AF
:20622C0086F83F00019F87F8A410206F86421AD10CF0A0FB17E0B4F98C0000F6FF706FF3F2
:20624C001F30A4F88C0003E07F1E1846FFB237E794F8040140F0040084F8040101986FF0D0
:20626C00020BC4F8F800029819F05EFB584605B0BDE8F08FE8270020FFEFFF9F10270020CC
:20628C002DE9F04142F20400ADF1280D0DF123010EF068F842F205000DF122010EF062F86E
:2062AC0042F2010069460EF05DF8884C88489DF82310C4F8A80164204143C4F8A011854987
:2062CC00C4F8C4119DF822104843C4F8BC018248824EC4F8E001B07888B342F203000DF187
:2062EC0006010EF03FF810F047F805460DF1060029460DF0D9F82D1A9DF8220084F89B5125
:20630C0070B1009860B104F5DC700DF0BFFF04F5BA700AF0A1F8012084F8940184F89801AA
:20632C0042F202000DF106010EF01CF80DF1060010F028FA04F5CE700DF0A8FF11E042F2DE
:20634C0002000DF106010EF00DF80DF1060010F019FA04F5CE700DF099FF04F5BA700CF025
:20636C00A7FE96F83F040EF087FFC07B022804BF012084F8F401E68994F8F801002840F011
:20638C00A18004F12800002138220BF06FF806EB86060025B0B2A58106460AF0C5F904F1B3
:2063AC0028074FF00108206110B911F05AFB2069324629460BF05AF849484A4EE06307F199
:2063CC00080066630DF062FF42F21B0001A90DF0C9FFBDF8040001A9A4F84C0042F21C0029
:2063EC000DF0C0FFBDF8040001A9A4F84E0042F21D000DF0B7FFBDF8040009A920835D20F9
:20640C000EF06AFA9DF8240000280CBF84F85C5084F85C80B4F84C0040B100EB401080B28C
:20642C000AF082F9606508B911F01BFBB4F84E0048B1410001EB800188B20AF075F9A065F6
:20644C0008B911F00EFB278B47B1F80080B20AF06BF9606108B911F004FB278B22490DF196
:20646C001A00082210F07AFD4FB1666930460DF11A01082210F072FD08367F1EF6D1B4F810
:20648C004C70658357B1606D4FF6FF720146A0F81F207F1E8D7701F12100F7D1B4F84E70BD
:2064AC004FB1A06D4FF6FF71024681807F1ED57002F10600F8D1201D294606220AF0D6FF7E
:2064CC0084F8F8810AB0BDE8F081C04600180020153F010081BE0000C179010008020020B4
:2064EC0049B10000002A75156C0100002DE9F0410D46934CDFF854C2DFF84C82A188D12848
:20650C00074613DCDFF848E2D12800F0A480713800F0E780401E00F0E080401E00F0D780D2
:20652C00113810D04C3800F0B28007E0D2387BD0401E61D0401E34D0401E2BD0384611F07B
:20654C0022F8FF2802D1F420BDE8F0817D4C04EBC004217909B9E08860B1E088884208BFA7
:20656C00FB2000F0EA802A78914200F399809042C0F2968011F07BFA2778628806464046AE
:20658C00A0F138017818294610F0E8FC304619F0CBF9D1E02978022980F2828040466C1C00
:2065AC0071E0288881427BDD6746AA88D7F820338100860001EB001106EB0016D7F82003B5
:2065CC005A52E988D7F8203380190822418005F108019819001D10F0C1FCD7F82003A27A54
:2065EC0029698019C068D20010F0B8FC297DD7F82003801901749FE0288821892A88064639
:20660C0091424DDD6746D7F810132C24102204FB00101530A91C10F0A1FC6969D7F81003E6
:20662C0004FB0600816287E022892B882988A8789A4235DD022833DADCF810332C22471CE3
:20664C0000EB410602FB01331F75DCF81C13022201EB460038E020892B882A8869889842ED
:20666C001EDDE3888B421BDD704600682C2404FB02008489A142A4BF4C1C8481DCF81803C5
:20668C0002FB03112C1D00EB810004221DE022892B882988A8789A4202DDE27A824202DC1D
:2066AC00E820BDE8F081DCF810332C22471C02FB01331F71E27ADCF8146301FB0201480039
:2066CC000A2200EBC1008019EC1C254631E0002D32D0404608222C46F7E76DB37046103074
:2066EC0026E025BB27893FB3E588E47A00231A46DCF8100302FB04F6710001EBC601DCF8E2
:20670C0014638919C150DCF8181302FB05F601EB8601DCF81C637F1E184403F12C03816089
:20672C0006EB820102F101020161E1D104E070460422294610F012FC0020BDE8F081C04656
:20674C003C2000208C0000002C050020080200201805002030B50546EC6B00215022ADF1B5
